{"abi":[{"type":"constructor","inputs":[{"name":"initialOwner","type":"address","internalType":"address"}],"stateMutability":"nonpayable"},{"type":"function","name":"GRID_SIZE","inputs":[],"outputs":[{"name":"","type":"uint8","internalType":"uint8"}],"stateMutability":"view"},{"type":"function","name":"SCALE","inputs":[],"outputs":[{"name":"","type":"uint16","internalType":"uint16"}],"stateMutability":"view"},{"type":"function","name":"TOTAL_PIXELS","inputs":[],"outputs":[{"name":"","type":"uint16","internalType":"uint16"}],"stateMutability":"view"},{"type":"function","name":"applySpell","inputs":[{"name":"spellType","type":"uint8","internalType":"enum PixelStaking.SpellType"},{"name":"pixelId","type":"uint16","internalType":"uint16"},{"name":"newPixelId","type":"uint16","internalType":"uint16"}],"outputs":[],"stateMutability":"nonpayable"},{"type":"function","name":"changePixel","inputs":[{"name":"pixelId","type":"uint16","internalType":"uint16"},{"name":"token_address","type":"address","internalType":"address"},{"name":"amount","type":"uint256","internalType":"uint256"},{"name":"color","type":"uint24","internalType":"uint24"}],"outputs":[],"stateMutability":"nonpayable"},{"type":"function","name":"interactions","inputs":[{"name":"","type":"address","internalType":"address"}],"outputs":[{"name":"","type":"uint16","internalType":"uint16"}],"stateMutability":"view"},{"type":"function","name":"owner","inputs":[],"outputs":[{"name":"","type":"address","internalType":"address"}],"stateMutability":"view"},{"type":"function","name":"pixels","inputs":[{"name":"","type":"uint16","internalType":"uint16"}],"outputs":[{"name":"owner","type":"address","internalType":"address"},{"name":"color","type":"uint24","internalType":"uint24"},{"name":"stakeAmount","type":"uint256","internalType":"uint256"},{"name":"effectiveStakeAmount","type":"uint256","internalType":"uint256"},{"name":"token_address","type":"address","internalType":"address"}],"stateMutability":"view"},{"type":"function","name":"renounceOwnership","inputs":[],"outputs":[],"stateMutability":"nonpayable"},{"type":"function","name":"runActions","inputs":[{"name":"actions","type":"tuple[]","internalType":"struct PixelStaking.Action[]","components":[{"name":"pixelId","type":"uint16","internalType":"uint16"},{"name":"newPixelId","type":"uint16","internalType":"uint16"},{"name":"actionType","type":"uint8","internalType":"enum PixelStaking.ActionType"},{"name":"spellType","type":"uint8","internalType":"enum PixelStaking.SpellType"},{"name":"color","type":"uint24","internalType":"uint24"},{"name":"amount","type":"uint256","internalType":"uint256"},{"name":"token_address","type":"address","internalType":"address"}]}],"outputs":[],"stateMutability":"nonpayable"},{"type":"function","name":"transferOwnership","inputs":[{"name":"newOwner","type":"address","internalType":"address"}],"outputs":[],"stateMutability":"nonpayable"},{"type":"event","name":"OwnershipTransferred","inputs":[{"name":"previousOwner","type":"address","indexed":true,"internalType":"address"},{"name":"newOwner","type":"address","indexed":true,"internalType":"address"}],"anonymous":false},{"type":"event","name":"PixelChanged","inputs":[{"name":"staker","type":"address","indexed":false,"internalType":"address"},{"name":"pixelId","type":"uint16","indexed":false,"internalType":"uint16"},{"name":"color","type":"uint24","indexed":false,"internalType":"uint24"},{"name":"amount","type":"uint256","indexed":false,"internalType":"uint256"},{"name":"effectiveAmount","type":"uint256","indexed":false,"internalType":"uint256"},{"name":"token_address","type":"address","indexed":false,"internalType":"address"}],"anonymous":false},{"type":"event","name":"SpellApplied","inputs":[{"name":"spell","type":"uint8","indexed":false,"internalType":"enum PixelStaking.SpellType"},{"name":"staker","type":"address","indexed":false,"internalType":"address"},{"name":"pixelId","type":"uint16","indexed":false,"internalType":"uint16"},{"name":"swappedPixelId","type":"uint16","indexed":false,"internalType":"uint16"}],"anonymous":false},{"type":"error","name":"ArrayLengthMismatch","inputs":[]},{"type":"error","name":"InsufficientStakeAmount","inputs":[]},{"type":"error","name":"InvalidPixelId","inputs":[]},{"type":"error","name":"InvalidToken","inputs":[{"name":"token","type":"address","internalType":"address"}]},{"type":"error","name":"NotPixelOwner","inputs":[]},{"type":"error","name":"OwnableInvalidOwner","inputs":[{"name":"owner","type":"address","internalType":"address"}]},{"type":"error","name":"OwnableUnauthorizedAccount","inputs":[{"name":"account","type":"address","internalType":"address"}]},{"type":"error","name":"notEnoughInteractionsForSpell","inputs":[]}],"bytecode":{"object":"0x60803460b857601f6117d038819003918201601f19168301916001600160401b0383118484101760bc5780849260209460405283398101031260b857516001600160a01b0381169081900360b857801560a5575f80546001600160a01b031981168317825560405192916001600160a01b03909116907f8be0079c531659141344cd1fd0a4f28419497f9722a3daafe3b4186f6b6457e09080a36116ff90816100d18239f35b631e4fbdf760e01b5f525f60045260245ffd5b5f80fd5b634e487b7160e01b5f52604160045260245ffdfe6080806040526004361015610012575f80fd5b5f3560e01c90816308a6f25214611006575080631fc52e5814610a6e5780634ae0f54814610a16578063715018a6146109bf5780637fc4eda8146109a457806389928534146101ef5780638da5cb5b146101c85780639349ec7714610157578063a29497c21461013a578063eced55261461011e5763f2fde38b14610095575f80fd5b3461011a57602036600319011261011a576100ae61103e565b6100b6611683565b6001600160a01b03168015610107575f80546001600160a01b03198116831782556001600160a01b0316907f8be0079c531659141344cd1fd0a4f28419497f9722a3daafe3b4186f6b6457e09080a3005b631e4fbdf760e01b5f525f60045260245ffd5b5f80fd5b3461011a575f36600319011261011a5760206040516103e88152f35b3461011a575f36600319011261011a576040516127108152602090f35b3461011a57602036600319011261011a5761ffff610173611054565b165f52600160205260a060405f208054906001810154906002810154906003600180871b03910154169162ffffff60405194600180881b0381168652861c166020850152604084015260608301526080820152f35b3461011a575f36600319011261011a575f546040516001600160a01b039091168152602090f35b3461011a57602036600319011261011a5760043567ffffffffffffffff811161011a573660238201121561011a57806004013567ffffffffffffffff8111610990576040519161024560208360051b0184611074565b818352602460e06020850193028201019036821161011a57602401915b8183106108da57835f5b815160ff821610156108d8576020611fe08260051b168301015190604082015160028110156108845761030b5761ffff82511660018060a01b0360c0840151169262ffffff608060a0830151920151169061ffff612710168310156102fc5760ff946102d79361116a565b1660ff81146102e85760010161026c565b634e487b7160e01b5f52601160045260245ffd5b633f943c2f60e21b5f5260045ffd5b606082015160048110156108845761ffff602081855116940151169061ffff612710168410156102fc57835f52600160205260405f2091335f52600260205261ffff60405f205416600a81106108c9576009190161ffff81116102e857335f52600260205261ffff60405f20911661ffff19825416179055811590815f146103f2575050506001810154908160011b93828504600214831517156102e8576103ea5f5160206116aa5f395f51905f52938660ff97600286015562ffffff855460a01c1694600360018060a01b03910154169160405195869533876110db565b0390a16102d7565b5f959394956003841493845f14610453575050505050815f5160206116aa5f395f51905f52916103ea600160ff969501548060011c80600286015562ffffff855460a01c1694600360018060a01b03910154169160405195869533876110db565b91939550919361ffff169361ffff606480870696049416606480820691049261ffff805f19981660010b961660010b965b600181810b13156104a05750505050505050505060ff906102d7565b5f195b600181810b13156104bd57506104b8906110ad565b610484565b6104c782896110bf565b6104d1828b6110bf565b908060010b5f81129081156108bd575b5080156108b1575b80156108a3575b610898579061050a61050f9261ffff169161ffff16611096565b611154565b908761ffff8316805f52600160205260405f20916108845787156105a157506001810154908160011b93828504600214831517156102e85760028201859055815460039092015460405161059c965f5160206116aa5f395f51905f529591948594610594946001600160a01b03908116949260a081901c62ffffff16929116876110db565b0390a16110ad565b6104a3565b985090915f988c5f146106045750815f5160206116aa5f395f51905f5291610594600161059c969501548060011c806002860155845494600360018060a01b03910154169160405195869562ffffff8260a01c169160018060a01b0316876110db565b5f995090600186148015610877575b9061059c94939291610628575b5050506110ad565b6106398661ffff8a1660010b6110bf565b9261064b8561ffff8d1660010b6110bf565b908460010b5f811290811561086b575b50801561085f575b8015610851575b610847576106945f5160206116aa5f395f51905f52959261050a879461ffff169161ffff16611096565b9261ffff8416805f52600160205260405f20955f52600160205260405f208681036107cf575b505f52600160205260405f20828103610757575b5081546001830154600284015460039094015460405194859461070c946001600160a01b0393841694929360a082901c62ffffff16929116876110db565b0390a181546001830154600284015460039094015460405194859461074c946001600160a01b0393841694929360a082901c62ffffff16929116876110db565b0390a18d8080610620565b825481546001600160a01b039091166001600160a01b0319821681178355845462ffffff60a01b166001600160b81b0319909216171781556001838101549082015560028084015490820155600380840154910180546001600160a01b0319166001600160a01b03929092169190911790555f6106ce565b865481546001600160a01b039091166001600160a01b0319821681178355885462ffffff60a01b166001600160b81b0319909216171781556001878101549082015560028088015490820155600380880154910180546001600160a01b0319166001600160a01b03929092169190911790555f6106ba565b50505050506110ad565b5060648260010b121561066a565b505f8260010b12610663565b6064915012155f61065b565b505f995060028614610613565b634e487b7160e01b5f52602160045260245ffd5b505061059c906110ad565b5060648260010b12156104f0565b505f8260010b126104e9565b6064915012158f6104e1565b63cd9a5a8f60e01b5f5260045ffd5b005b60e08336031261011a576040519060e0820182811067ffffffffffffffff8211176109905760405261090b84611065565b825261091960208501611065565b60208301526040840135600281101561011a5760408301526060840135600481101561011a576060830152608084013562ffffff8116810361011a57608083015260a0848101359083015260c0840135906001600160a01b038216820361011a578260209260c060e0950152815201920191610262565b634e487b7160e01b5f52604160045260245ffd5b3461011a575f36600319011261011a57602060405160648152f35b3461011a575f36600319011261011a576109d7611683565b5f80546001600160a01b0319811682556001600160a01b03167f8be0079c531659141344cd1fd0a4f28419497f9722a3daafe3b4186f6b6457e08280a3005b3461011a57608036600319011261011a57610a2f611054565b602435906001600160a01b038216820361011a576064359062ffffff8216820361011a5761271061ffff821610156102fc576108d8926044359161116a565b3461011a57606036600319011261011a57600435600481101561011a576024359061ffff82169081830361011a576044359161ffff8316830361011a576127108110156102fc57805f52600160205260405f2092335f52600260205261ffff60405f205416600a81106108c9576009190161ffff81116102e857335f52600260205261ffff60405f20911661ffff19825416179055821592835f14610b6d57505050506001810154918260011b838104600214841517156102e8575f5160206116aa5f395f51905f529381610b6892600286015562ffffff855460a01c1694600360018060a01b03910154169160405195869533876110db565b0390a1005b6003811495935f91908715610bc95750505050505f5160206116aa5f395f51905f529250610b6860018301548060011c80600286015562ffffff855460a01c1694600360018060a01b03910154169160405195869533876110db565b9193955091935061ffff606480870696049416606480820691049261ffff805f19981660010b961660010b965b600181810b1315610c0357005b5f195b600181810b1315610c205750610c1b906110ad565b610bf6565b610c2d82899a939a6110bf565b610c3782846110bf565b908060010b5f8112908115610ffa575b508015610fee575b8015610fe0575b610fd5579061050a610c709261ffff169161ffff16611096565b908761ffff8316805f52600160205260405f2091610884578715610cfd57506001810154908160011b93828504600214831517156102e857600282018590558154600390920154604051610cf5965f5160206116aa5f395f51905f529591948594610594946001600160a01b03908116949260a081901c62ffffff16929116876110db565b979097610c06565b985090915f988c5f14610d605750815f5160206116aa5f395f51905f52916105946001610cf5969501548060011c806002860155845494600360018060a01b03910154169160405195869562ffffff8260a01c169160018060a01b0316876110db565b5f995090600186148015610fc8575b90610cf594939291610d83575050506110ad565b610d948d61ffff8a1660010b6110bf565b92610da68561ffff8d1660010b6110bf565b908460010b5f8112908115610fbc575b508015610fb0575b8015610fa2575b61084757610def5f5160206116aa5f395f51905f52959261050a879461ffff169161ffff16611096565b9261ffff8416805f52600160205260405f20955f52600160205260405f20868103610f2a575b505f52600160205260405f20828103610eb2575b50815460018301546002840154600390940154604051948594610e67946001600160a01b0393841694929360a082901c62ffffff16929116876110db565b0390a1815460018301546002840154600390940154604051948594610ea7946001600160a01b0393841694929360a082901c62ffffff16929116876110db565b0390a18b8080610620565b825481546001600160a01b039091166001600160a01b0319821681178355845462ffffff60a01b166001600160b81b0319909216171781556001838101549082015560028084015490820155600380840154910180546001600160a01b0319166001600160a01b03929092169190911790555f610e29565b865481546001600160a01b039091166001600160a01b0319821681178355885462ffffff60a01b166001600160b81b0319909216171781556001878101549082015560028088015490820155600380880154910180546001600160a01b0319166001600160a01b03929092169190911790555f610e15565b5060648260010b1215610dc5565b505f8260010b12610dbe565b6064915012155f610db6565b505f995060028614610d6f565b5050610cf5906110ad565b5060648260010b1215610c56565b505f8260010b12610c4f565b6064915012158d610c47565b3461011a57602036600319011261011a576020906001600160a01b0361102a61103e565b165f526002825261ffff60405f2054168152f35b600435906001600160a01b038216820361011a57565b6004359061ffff8216820361011a57565b359061ffff8216820361011a57565b90601f8019910116810190811067ffffffffffffffff82111761099057604052565b61ffff60649116029061ffff82169182036102e857565b60010b617fff81146102e85760010190565b9060010b9060010b0190617fff198212617fff8313176102e857565b6001600160a01b03918216815261ffff909216602083015262ffffff909216604082015260608101929092526080820192909252911660a082015260c00190565b818102929181159184041417156102e857565b9081602091031261011a5751801515810361011a5790565b919082039182116102e857565b9061ffff8091169116019061ffff82116102e857565b9092919261ffff8216805f52600160205260405f2080549160018060a01b0383169160018101908154936002820193845496600384019760018060a01b0389541692338514611382575050505083548a1115611373576040516323b872dd60e01b8152336004820152306024820152604481018b90526001600160a01b038816959093906020856064815f8b5af1928315611342578b958d94611356575b508015158061134d575b6112c1575b505082546001600160a01b03191633178355819055909255815462ffffff60a01b191660a09190911b62ffffff60a01b161790555b6bffffffffffffffffffffffff60a01b825416179055335f526002602052600161ffff60405f205416019061ffff82116102e8575f5160206116aa5f395f51905f52946112bc92335f52600260205261ffff60405f20911661ffff198254161790558060405195869533876110db565b0390a1565b60405163a9059cbb60e01b81526001600160a01b03919091166004820152602481019190915290935090506020816044815f895af1938415611342578a8a94819361124c97611313575b509195611217565b6113349060203d60201161133b575b61132c8183611074565b81019061112f565b505f61130b565b503d611322565b6040513d5f823e3d90fd5b50811515611212565b61136e9060203d60201161133b5761132c8183611074565b611208565b63a8ded35f60e01b5f5260045ffd5b929c989196995092508796949396156115bf5750506103e883028381046103e814841517156102e85781156115ab5704906103e86113c0838861111c565b0496838703611429575b50505050916112bc9391865f5160206116aa5f395f51905f52989462ffffff8083169160a01c1603611406575b505060405195869533876110db565b815462ffffff60a01b191660a09190911b62ffffff60a01b161790555f866113f7565b83879592939896949b97115f146114d95760206114496114769c87611147565b6040516323b872dd60e01b815233600482015230602482015260448101919091529b8c9081906064820190565b03815f8b5af1928315611342576114ad6112bc99876103e8935f5160206116aa5f395f51905f529f8f986114bc575b50558761111c565b0490555b9294988294966113ca565b6114d49060203d60201161133b5761132c8183611074565b6114a5565b9192939495969099808610611509575b50505050906112bc939291865f5160206116aa5f395f51905f52986114b1565b916103e861152e87969593876115266115589c9b9a602098611147565b95558761111c565b04905560405163a9059cbb60e01b8152336004820152602481019190915295869081906044820190565b03815f885af18015611342575f5160206116aa5f395f51905f52986112bc96899261158c575b819a508394959697506114e9565b6115a49060203d60201161133b5761132c8183611074565b505f61157e565b634e487b7160e01b5f52601260045260245ffd5b86546001600160a01b031990811688555f9485905598849055865462ffffff60a01b1916909655855490971690945560405163a9059cbb60e01b815233600482015260248101929092529097949650602095508794604494508593509091505af1908115611342575f5160206116aa5f395f51905f529260c092611666575b506040519033825260208201525f60408201525f60608201525f60808201525f60a0820152a1565b61167e9060203d60201161133b5761132c8183611074565b61163e565b5f546001600160a01b0316330361169657565b63118cdaa760e01b5f523360045260245ffdfeb27275fe7d6ec91207f080f7ea0c5ee1cfd18b009497126034132b55eedefe50a2646970667358221220c10066c28613fec970efa6f68b4a398d6c2ed603f06a83a3bf6e1d020621ee7f64736f6c634300081c0033","linkReferences":{}},"methodIdentifiers":{"GRID_SIZE()":"7fc4eda8","SCALE()":"eced5526","TOTAL_PIXELS()":"a29497c2","applySpell(uint8,uint16,uint16)":"1fc52e58","changePixel(uint16,address,uint256,uint24)":"4ae0f548","interactions(address)":"08a6f252","owner()":"8da5cb5b","pixels(uint16)":"9349ec77","renounceOwnership()":"715018a6","runActions((uint16,uint16,uint8,uint8,uint24,uint256,address)[])":"89928534","transferOwnership(address)":"f2fde38b"},"id":19}