{"abi":[{"type":"constructor","inputs":[{"name":"_endpoint","type":"address","internalType":"address"},{"name":"_delegate","type":"address","internalType":"address"},{"name":"_dstEid","type":"uint32","internalType":"uint32"}],"stateMutability":"nonpayable"},{"type":"function","name":"GRID_SIZE","inputs":[],"outputs":[{"name":"","type":"uint8","internalType":"uint8"}],"stateMutability":"view"},{"type":"function","name":"SCALE","inputs":[],"outputs":[{"name":"","type":"uint16","internalType":"uint16"}],"stateMutability":"view"},{"type":"function","name":"TOTAL_PIXELS","inputs":[],"outputs":[{"name":"","type":"uint16","internalType":"uint16"}],"stateMutability":"view"},{"type":"function","name":"_applyPayload","inputs":[{"name":"payload","type":"bytes","internalType":"bytes"}],"outputs":[],"stateMutability":"nonpayable"},{"type":"function","name":"allowInitializePath","inputs":[{"name":"origin","type":"tuple","internalType":"struct Origin","components":[{"name":"srcEid","type":"uint32","internalType":"uint32"},{"name":"sender","type":"bytes32","internalType":"bytes32"},{"name":"nonce","type":"uint64","internalType":"uint64"}]}],"outputs":[{"name":"","type":"bool","internalType":"bool"}],"stateMutability":"view"},{"type":"function","name":"applySpellCrossChain","inputs":[{"name":"_spell","type":"uint8","internalType":"enum SpellType"},{"name":"_pixelId","type":"uint16","internalType":"uint16"},{"name":"_newPixelId","type":"uint16","internalType":"uint16"}],"outputs":[],"stateMutability":"payable"},{"type":"function","name":"changePixelCrossChain","inputs":[{"name":"_pixelId","type":"uint16","internalType":"uint16"},{"name":"_token","type":"address","internalType":"address"},{"name":"_amount","type":"uint256","internalType":"uint256"},{"name":"_color","type":"uint24","internalType":"uint24"}],"outputs":[],"stateMutability":"payable"},{"type":"function","name":"dstEid","inputs":[],"outputs":[{"name":"","type":"uint32","internalType":"uint32"}],"stateMutability":"view"},{"type":"function","name":"endpoint","inputs":[],"outputs":[{"name":"","type":"address","internalType":"contract ILayerZeroEndpointV2"}],"stateMutability":"view"},{"type":"function","name":"interactions","inputs":[{"name":"","type":"address","internalType":"address"}],"outputs":[{"name":"","type":"uint16","internalType":"uint16"}],"stateMutability":"view"},{"type":"function","name":"isComposeMsgSender","inputs":[{"name":"","type":"tuple","internalType":"struct Origin","components":[{"name":"srcEid","type":"uint32","internalType":"uint32"},{"name":"sender","type":"bytes32","internalType":"bytes32"},{"name":"nonce","type":"uint64","internalType":"uint64"}]},{"name":"","type":"bytes","internalType":"bytes"},{"name":"_sender","type":"address","internalType":"address"}],"outputs":[{"name":"","type":"bool","internalType":"bool"}],"stateMutability":"view"},{"type":"function","name":"lzReceive","inputs":[{"name":"_origin","type":"tuple","internalType":"struct Origin","components":[{"name":"srcEid","type":"uint32","internalType":"uint32"},{"name":"sender","type":"bytes32","internalType":"bytes32"},{"name":"nonce","type":"uint64","internalType":"uint64"}]},{"name":"_guid","type":"bytes32","internalType":"bytes32"},{"name":"_message","type":"bytes","internalType":"bytes"},{"name":"_executor","type":"address","internalType":"address"},{"name":"_extraData","type":"bytes","internalType":"bytes"}],"outputs":[],"stateMutability":"payable"},{"type":"function","name":"nextNonce","inputs":[{"name":"","type":"uint32","internalType":"uint32"},{"name":"","type":"bytes32","internalType":"bytes32"}],"outputs":[{"name":"nonce","type":"uint64","internalType":"uint64"}],"stateMutability":"view"},{"type":"function","name":"oAppVersion","inputs":[],"outputs":[{"name":"senderVersion","type":"uint64","internalType":"uint64"},{"name":"receiverVersion","type":"uint64","internalType":"uint64"}],"stateMutability":"pure"},{"type":"function","name":"owner","inputs":[],"outputs":[{"name":"","type":"address","internalType":"address"}],"stateMutability":"view"},{"type":"function","name":"peers","inputs":[{"name":"eid","type":"uint32","internalType":"uint32"}],"outputs":[{"name":"peer","type":"bytes32","internalType":"bytes32"}],"stateMutability":"view"},{"type":"function","name":"pixels","inputs":[{"name":"","type":"uint16","internalType":"uint16"}],"outputs":[{"name":"owner","type":"address","internalType":"address"},{"name":"color","type":"uint24","internalType":"uint24"},{"name":"stakeAmount","type":"uint256","internalType":"uint256"},{"name":"effectiveStakeAmount","type":"uint256","internalType":"uint256"},{"name":"token_address","type":"address","internalType":"address"}],"stateMutability":"view"},{"type":"function","name":"renounceOwnership","inputs":[],"outputs":[],"stateMutability":"nonpayable"},{"type":"function","name":"runAction","inputs":[{"name":"action","type":"tuple","internalType":"struct PixelStaking.Action","components":[{"name":"pixelId","type":"uint16","internalType":"uint16"},{"name":"newPixelId","type":"uint16","internalType":"uint16"},{"name":"actionType","type":"uint8","internalType":"enum ActionType"},{"name":"spellType","type":"uint8","internalType":"enum SpellType"},{"name":"color","type":"uint24","internalType":"uint24"},{"name":"amount","type":"uint256","internalType":"uint256"},{"name":"token_address","type":"address","internalType":"address"}]}],"outputs":[],"stateMutability":"payable"},{"type":"function","name":"runActions","inputs":[{"name":"actions","type":"tuple[]","internalType":"struct PixelStaking.Action[]","components":[{"name":"pixelId","type":"uint16","internalType":"uint16"},{"name":"newPixelId","type":"uint16","internalType":"uint16"},{"name":"actionType","type":"uint8","internalType":"enum ActionType"},{"name":"spellType","type":"uint8","internalType":"enum SpellType"},{"name":"color","type":"uint24","internalType":"uint24"},{"name":"amount","type":"uint256","internalType":"uint256"},{"name":"token_address","type":"address","internalType":"address"}]}],"outputs":[],"stateMutability":"payable"},{"type":"function","name":"setDelegate","inputs":[{"name":"_delegate","type":"address","internalType":"address"}],"outputs":[],"stateMutability":"nonpayable"},{"type":"function","name":"setPeer","inputs":[{"name":"_eid","type":"uint32","internalType":"uint32"},{"name":"_peer","type":"bytes32","internalType":"bytes32"}],"outputs":[],"stateMutability":"nonpayable"},{"type":"function","name":"transferOwnership","inputs":[{"name":"newOwner","type":"address","internalType":"address"}],"outputs":[],"stateMutability":"nonpayable"},{"type":"event","name":"OwnershipTransferred","inputs":[{"name":"previousOwner","type":"address","indexed":true,"internalType":"address"},{"name":"newOwner","type":"address","indexed":true,"internalType":"address"}],"anonymous":false},{"type":"event","name":"PeerSet","inputs":[{"name":"eid","type":"uint32","indexed":false,"internalType":"uint32"},{"name":"peer","type":"bytes32","indexed":false,"internalType":"bytes32"}],"anonymous":false},{"type":"event","name":"PixelChanged","inputs":[{"name":"staker","type":"address","indexed":false,"internalType":"address"},{"name":"pixelId","type":"uint16","indexed":false,"internalType":"uint16"},{"name":"color","type":"uint24","indexed":false,"internalType":"uint24"},{"name":"amount","type":"uint256","indexed":false,"internalType":"uint256"},{"name":"effectiveAmount","type":"uint256","indexed":false,"internalType":"uint256"},{"name":"token_address","type":"address","indexed":false,"internalType":"address"}],"anonymous":false},{"type":"event","name":"SpellApplied","inputs":[{"name":"spell","type":"uint8","indexed":false,"internalType":"enum SpellType"},{"name":"staker","type":"address","indexed":false,"internalType":"address"},{"name":"pixelId","type":"uint16","indexed":false,"internalType":"uint16"},{"name":"swappedPixelId","type":"uint16","indexed":false,"internalType":"uint16"}],"anonymous":false},{"type":"error","name":"ArrayLengthMismatch","inputs":[]},{"type":"error","name":"InsufficientStakeAmount","inputs":[]},{"type":"error","name":"InvalidDelegate","inputs":[]},{"type":"error","name":"InvalidEndpointCall","inputs":[]},{"type":"error","name":"InvalidPixelId","inputs":[]},{"type":"error","name":"InvalidToken","inputs":[{"name":"token","type":"address","internalType":"address"}]},{"type":"error","name":"LzTokenUnavailable","inputs":[]},{"type":"error","name":"NoPeer","inputs":[{"name":"eid","type":"uint32","internalType":"uint32"}]},{"type":"error","name":"NotEnoughNative","inputs":[{"name":"msgValue","type":"uint256","internalType":"uint256"}]},{"type":"error","name":"NotPixelOwner","inputs":[]},{"type":"error","name":"OnlyEndpoint","inputs":[{"name":"addr","type":"address","internalType":"address"}]},{"type":"error","name":"OnlyPeer","inputs":[{"name":"eid","type":"uint32","internalType":"uint32"},{"name":"sender","type":"bytes32","internalType":"bytes32"}]},{"type":"error","name":"OwnableInvalidOwner","inputs":[{"name":"owner","type":"address","internalType":"address"}]},{"type":"error","name":"OwnableUnauthorizedAccount","inputs":[{"name":"account","type":"address","internalType":"address"}]},{"type":"error","name":"SafeERC20FailedOperation","inputs":[{"name":"token","type":"address","internalType":"address"}]},{"type":"error","name":"notEnoughInteractionsForSpell","inputs":[]}],"bytecode":{"object":"0x60a080604052346101495760608161271c803803809161001f828561016f565b83398101031261014957610032816101a6565b6040610040602084016101a6565b9201519163ffffffff831680930361014957331561015c575f8054336001600160a01b0319821681178355604051949290916001600160a01b0316907f8be0079c531659141344cd1fd0a4f28419497f9722a3daafe3b4186f6b6457e09080a36001600160a01b039081166080819052911690811561014d57803b15610149576024835f8193819563ca5eb5e160e01b845260048401525af1801561013e5761012e575b5063ffffffff19600454161760045560405161256190816101bb823960805181818161031401528181610915015281816117730152818161220f0152818161232701526123db0152f35b5f6101389161016f565b5f6100e4565b6040513d5f823e3d90fd5b5f80fd5b632d618d8160e21b5f5260045ffd5b631e4fbdf760e01b5f525f60045260245ffd5b601f909101601f19168101906001600160401b0382119082101761019257604052565b634e487b7160e01b5f52604160045260245ffd5b51906001600160a01b03821682036101495756fe6080806040526004361015610012575f80fd5b5f905f3560e01c90816308a6f252146118525750806313137d651461171157806317442b70146116ef57806319b6c541146110315780633400288b14610fbf5780635347cf69146109445780635e280f11146108ff57806368ad601a1461075f578063715018a614610705578063734ff5f3146106e15780637d25a05e146106bb5780637fc4eda81461069f57806382413eac1461064257806389928534146104885780638da5cb5b146104615780639349ec77146103ef578063a29497c2146103d1578063bb0b6a531461039c578063ca5eb5e1146102ef578063caa464c6146101fa578063eced5526146101dd578063f2fde38b146101575763ff7bd03d1461011b575f80fd5b346101545760603660031901126101545760209060409063ffffffff61013f611a7d565b16815260038352205460405190602435148152f35b80fd5b50346101545760203660031901126101545761017161188a565b6101796120b7565b6001600160a01b031680156101c95781546001600160a01b03198116821783556001600160a01b03167f8be0079c531659141344cd1fd0a4f28419497f9722a3daafe3b4186f6b6457e08380a380f35b631e4fbdf760e01b82526004829052602482fd5b503461015457806003193601126101545760206040516103e88152f35b5060803660031901126101545761020f6118f6565b6024356001600160a01b038116918282036102eb576044359160643562ffffff8116918282036102e75761ffff8416936127108510156102d85761025592918691611b9e565b63ffffffff600454169283610268578580f35b6102ce946040519387602086015260408501526060840152608083015260a082015260a0815261029960c082611996565b6102b46040516102aa602082611996565b5f815282846121af565b90604051906102c4602083611996565b5f82523393612280565b505f808080808580f35b633f943c2f60e21b8852600488fd5b8680fd5b8380fd5b5034610154576020366003190112610154578061030a61188a565b6103126120b7565b7f00000000000000000000000000000000000000000000000000000000000000006001600160a01b031690813b156103985760405163ca5eb5e160e01b81526001600160a01b0390911660048201529082908290602490829084905af1801561038d5761037c5750f35b8161038691611996565b6101545780f35b6040513d84823e3d90fd5b5050fd5b503461015457602036600319011261015457604060209163ffffffff6103c06118e3565b168152600383522054604051908152f35b50346101545780600319360112610154576040516127108152602090f35b503461015457602036600319011261015457604060a09161ffff6104116118f6565b1681526001602052208054906001810154906002810154906003600180871b03910154169162ffffff60405194600180881b0381168652861c166020850152604084015260608301526080820152f35b5034610154578060031936011261015457546040516001600160a01b039091168152602090f35b506020366003190112610154576004356001600160401b03811161063e573660238201121561063e578060040135906001600160401b03821161062a57604051916104d960208260051b0184611996565b808352602460e06020850192028301019136831161062657602401905b82821061060c57505050815b815160ff82161015610608576020611fe08260051b1683010151303b156102eb5760405190633456b00d60e11b825261ffff815116600483015261ffff6020820151166024830152604081015160028110156105f45790829160448794015261057360608201516064840190611a90565b608081015162ffffff16608483015260a081015160a483015260c001516001600160a01b031660c4820152818160e48183305af1801561038d576105db575b505060ff1660ff81146105c757600101610502565b634e487b7160e01b83526011600452602483fd5b816105e591611996565b6105f057825f6105b2565b8280fd5b634e487b7160e01b86526021600452602486fd5b8280f35b602060e09161061b36856119b7565b8152019101906104f6565b8480fd5b634e487b7160e01b83526041600452602483fd5b5080fd5b503461015457366003190160a0811261063e57606013610154576064356001600160401b03811161063e5761067b9036906004016118b6565b50506084356001600160a01b0381169081900361063e576020906040519030148152f35b5034610154578060031936011261015457602060405160648152f35b5034610154576040366003190112610154576020906106d86118e3565b50604051908152f35b5034610154578060031936011261015457602063ffffffff60045416604051908152f35b503461015457806003193601126101545761071e6120b7565b80546001600160a01b03198116825581906001600160a01b03167f8be0079c531659141344cd1fd0a4f28419497f9722a3daafe3b4186f6b6457e08280a380f35b5060e0366003190112610154576040519061077982611916565b60043561ffff8116810361063e57825260243561ffff8116810361063e57602083019081526044359060028210156105f057604084019182526064359060048210156102eb57606085019182526084359062ffffff82168203610626576080860191825260a43560a0870190815260c435949093906001600160a01b03861686036102e75760c088019586525160028110156108eb5761087257505062ffffff61ffff859651169360018060a01b03905116925191511691303b156106265760405193636552326360e11b85526004850152602484015260448301526064820152818160848183305af1801561038d5761037c57505080f35b51935091505060048210156108d75761ffff808495511691511690303b156108d257604051635347cf6960e01b8152926108b0906004850190611a90565b60248301526044820152818160648183305af1801561038d5761037c57505080f35b505050fd5b634e487b7160e01b83526021600452602483fd5b634e487b7160e01b87526021600452602487fd5b50346101545780600319360112610154576040517f00000000000000000000000000000000000000000000000000000000000000006001600160a01b03168152602090f35b50606036600319011261015457600435600481101561063e5760243561ffff8116918282036102eb576044359161ffff831680930361062657612710841015610fb05783855260016020526040852090338652600260205261ffff604087205416600a8110610fa1576009190161ffff8111610f8d57338752600260205261ffff60408820911661ffff198254161790558215805f14610aa0575060018201548060011b81810460021482151715610a8c5783929181610a379260025f51602061250c5f395f51905f5297015562ffffff855460a01c1694600360018060a01b0391015416916040519586953387611b0f565b0390a15b63ffffffff600454169182610a4e578480f35b610a8393610a6a60405193600160208601526040850190611a90565b606083015260808201526080815261029960a082611996565b505f8080808480f35b634e487b7160e01b88526011600452602488fd5b8692919060038514908115610b015750505f51602061250c5f395f51905f529250610af960018301548060011c80600286015562ffffff855460a01c1694600360018060a01b0391015416916040519586953387611b0f565b0390a1610a3b565b915091506064860691606487049160648706606488049061ffff805f19971660010b951660010b955b600181810b1315610b42575050505050505050610a3b565b5f195b600181810b1315610b5f5750610b5a90611ae1565b610b2a565b888d610b6b848a611af3565b610b75848c611af3565b908060010b838112908115610f81575b508015610f75575b8015610f67575b610f5a5790610bae610bb39261ffff169161ffff16611a52565b611b88565b90604061ffff83169182815260016020522092610f45578f908815610c5d57505060018201548060011b81810460021482151715610c4757600284018190558354600390940154604051610c4296955f51602061250c5f395f51905f529591948594610c3a946001600160a01b0390811694919360a081901c62ffffff1692911687611b0f565b0390a1611ae1565b610b45565b5050634e487b7160e01b8f52601160045260248ffd5b909b508b8915610cbe575050815f51602061250c5f395f51905f5291610c3a6001610c42969501548060011c806002860155845494600360018060a01b03910154169160405195869562ffffff8260a01c169160018060a01b031687611b0f565b9b5090918b9060018e148e8115610f35575b5090610c429594939291610ce8575b50505050611ae1565b610cf98761ffff8a1660010b611af3565b90610d0b8661ffff8c1660010b611af3565b948260010b848112908115610f29575b508015610f1d575b8015610f0f575b610f04576040610d555f51602061250c5f395f51905f5297610bae899661ffff169161ffff16611a52565b9461ffff861680825260016020528282209782526001602052828220888103610e8c575b508152600160205220828103610e14575b50815460018301546002840154600390940154604051948594610dc8946001600160a01b0393841694929360a082901c62ffffff1692911687611b0f565b0390a1815460018301546002840154600390940154604051948594610e08946001600160a01b0393841694929360a082901c62ffffff1692911687611b0f565b0390a15f808f81610cdf565b825481546001600160a01b039091166001600160a01b0319821681178355845462ffffff60a01b166001600160b81b0319909216171781556001838101549082015560028084015490820155600380840154910180546001600160a01b0319166001600160a01b03929092169190911790555f610d8a565b885481546001600160a01b039091166001600160a01b03198216811783558a5462ffffff60a01b166001600160b81b031990921617178155600189810154908201556002808a0154908201556003808a0154910180546001600160a01b0319166001600160a01b03929092169190911790555f610d79565b505050505050611ae1565b5060648660010b1215610d2a565b50838660010b12610d23565b6064915012155f610d1b565b929d508d9260021490508e610cd0565b50634e487b7160e01b8f52602160045260248ffd5b50505050610c4290611ae1565b5060648260010b1215610b94565b50828260010b12610b8d565b6064915012155f610b85565b634e487b7160e01b87526011600452602487fd5b63cd9a5a8f60e01b8752600487fd5b633f943c2f60e21b8552600485fd5b5034610154576040366003190112610154577f238399d427b947898edb290f5ff0f9109849b1c3ba196a42e35f00c50a54b98b610ffa6118e3565b63ffffffff6024359161100b6120b7565b16908184526003602052806040852055604051918252602082015260408180030190a180f35b5034610154576020366003190112610154576004356001600160401b03811161063e576110629036906004016118b6565b810160e0828203126105f057611077916119b7565b90604082015160028110156116db576110d95761ffff8251169160018060a01b0360c0820151169062ffffff608060a0830151920151169161ffff612710168510156110ca576110c79394611b9e565b80f35b633f943c2f60e21b8452600484fd5b606082015160048110156116db5761ffff6020818551169401511661ffff612710168410156116cc5783835260016020526040832091338452600260205261ffff604085205416600a81106116bd576009190161ffff81116116a957338552600260205261ffff60408620911661ffff19825416179055801591825f146111cf575050506001810154928360011b848104600214851517156111bb575f51602061250c5f395f51905f529394816111b592600286015562ffffff855460a01c1694600360018060a01b0391015416916040519586953387611b0f565b0390a180f35b634e487b7160e01b84526011600452602484fd5b8495926003831490815f1461122a57505050505f51602061250c5f395f51905f5292506111b560018301548060011c80600286015562ffffff855460a01c1694600360018060a01b0391015416916040519586953387611b0f565b919361ffff91939550169361ffff606480870696049416606480820691049161ffff805f19981660010b961660010b965b600181810b13156112725750505050505050505080f35b5f195b600181810b131561128f575061128a90611ae1565b61125b565b896112a0838a9b949c9d999a611af3565b6112aa8385611af3565b908060010b8a811290811561169d575b508015611691575b8015611683575b6116775790610bae6112e39261ffff169161ffff16611a52565b61ffff8116808a52600160205260408a2092611663578815611386575060018201548060011b818104600214821517156113725760028401819055835460039094015460405161136696955f51602061250c5f395f51905f529591948594610c3a946001600160a01b0390811694919360a081901c62ffffff1692911687611b0f565b99989097969599611275565b634e487b7160e01b8b52601160045260248bfd5b9c50889c8a5f146113e75750815f51602061250c5f395f51905f5291610c3a6001611366969501548060011c806002860155845494600360018060a01b03910154169160405195869562ffffff8260a01c169160018060a01b031687611b0f565b90919c50889c600186148015611654575b611366949392918e8c92611411575b5050505050611ae1565b6114229061ffff8b1660010b611af3565b906114348661ffff8d1660010b611af3565b948260010b848112908115611648575b50801561163c575b801561162e575b610f0457604061147e5f51602061250c5f395f51905f5297610bae899661ffff169161ffff16611a52565b9461ffff8616808252600160205282822097825260016020528282208881036115b6575b50815260016020522082810361153e575b508154600183015460028401546003909401546040519485946114f1946001600160a01b0393841694929360a082901c62ffffff1692911687611b0f565b0390a1815460018301546002840154600390940154604051948594611531946001600160a01b0393841694929360a082901c62ffffff1692911687611b0f565b0390a15f8089818e611407565b825481546001600160a01b039091166001600160a01b0319821681178355845462ffffff60a01b166001600160b81b0319909216171781556001838101549082015560028084015490820155600380840154910180546001600160a01b0319166001600160a01b03929092169190911790555f6114b3565b885481546001600160a01b039091166001600160a01b03198216811783558a5462ffffff60a01b166001600160b81b031990921617178155600189810154908201556002808a0154908201556003808a0154910180546001600160a01b0319166001600160a01b03929092169190911790555f6114a2565b5060648660010b1215611453565b50838660010b1261144c565b6064915012155f611444565b50989c508c98600286146113f8565b634e487b7160e01b8a52602160045260248afd5b50505061136690611ae1565b5060648260010b12156112c9565b50898260010b126112c2565b6064915012155f6112ba565b634e487b7160e01b85526011600452602485fd5b63cd9a5a8f60e01b8552600485fd5b633f943c2f60e21b8352600483fd5b634e487b7160e01b82526021600452602482fd5b5034610154578060031936011261015457604080516001815260026020820152f35b50366003190160e0811261181857606013611818576084356001600160401b038111611818576117459036906004016118b6565b9061174e6118a0565b5060c4356001600160401b0381116118185761176e9036906004016118b6565b5050337f00000000000000000000000000000000000000000000000000000000000000006001600160a01b03160361183f576117b06117ab611a7d565b611ab1565b60243580910361181c5750303b15611818578160445f9260405194859384926319b6c54160e01b845260206004850152816024850152848401378181018301859052601f01601f1916810103018183305af161180a575080f35b61181691505f90611996565b005b5f80fd5b63ffffffff611829611a7d565b63309afaf360e21b5f521660045260245260445ffd5b6391ac5e4f60e01b5f523360045260245ffd5b34611818576020366003190112611818576020906001600160a01b0361187661188a565b165f526002825261ffff60405f2054168152f35b600435906001600160a01b038216820361181857565b60a435906001600160a01b038216820361181857565b9181601f84011215611818578235916001600160401b038311611818576020838186019501011161181857565b6004359063ffffffff8216820361181857565b6004359061ffff8216820361181857565b359061ffff8216820361181857565b60e081019081106001600160401b0382111761193157604052565b634e487b7160e01b5f52604160045260245ffd5b604081019081106001600160401b0382111761193157604052565b60a081019081106001600160401b0382111761193157604052565b606081019081106001600160401b0382111761193157604052565b90601f801991011681019081106001600160401b0382111761193157604052565b91908260e0910312611818576040516119cf81611916565b80926119da81611907565b82526119e860208201611907565b6020830152604081013560028110156118185760408301526060810135600481101561181857606083015260808101359062ffffff8216820361181857608083019190915260a0818101359083015260c00135906001600160a01b03821682036118185760c00152565b61ffff60649116029061ffff8216918203611a6957565b634e487b7160e01b5f52601160045260245ffd5b60043563ffffffff811681036118185790565b906004821015611a9d5752565b634e487b7160e01b5f52602160045260245ffd5b63ffffffff16805f52600360205260405f2054908115611acf575090565b63f6ff4fb760e01b5f5260045260245ffd5b60010b617fff8114611a695760010190565b9060010b9060010b0190617fff198212617fff831317611a6957565b6001600160a01b03918216815261ffff909216602083015262ffffff909216604082015260608101929092526080820192909252911660a082015260c00190565b81810292918115918404141715611a6957565b90816020910312611818575180151581036118185790565b91908203918211611a6957565b9061ffff8091169116019061ffff8211611a6957565b9092919261ffff8216805f52600160205260405f2080549160018060a01b0383169160018101908154936002820193845496600384019760018060a01b0389541692338514611db6575050505083548a1115611da7576040516323b872dd60e01b8152336004820152306024820152604481018b90526001600160a01b038816959093906020856064815f8b5af1928315611d76578b958d94611d8a575b5080151580611d81575b611cf5575b505082546001600160a01b03191633178355819055909255815462ffffff60a01b191660a09190911b62ffffff60a01b161790555b6bffffffffffffffffffffffff60a01b825416179055335f526002602052600161ffff60405f205416019061ffff8211611a69575f51602061250c5f395f51905f5294611cf092335f52600260205261ffff60405f20911661ffff19825416179055806040519586953387611b0f565b0390a1565b60405163a9059cbb60e01b81526001600160a01b03919091166004820152602481019190915290935090506020816044815f895af1938415611d76578a8a948193611c8097611d47575b509195611c4b565b611d689060203d602011611d6f575b611d608183611996565b810190611b63565b505f611d3f565b503d611d56565b6040513d5f823e3d90fd5b50811515611c46565b611da29060203d602011611d6f57611d608183611996565b611c3c565b63a8ded35f60e01b5f5260045ffd5b929c98919699509250879694939615611ff35750506103e883028381046103e81484151715611a69578115611fdf5704906103e8611df48388611b50565b0496838703611e5d575b5050505091611cf09391865f51602061250c5f395f51905f52989462ffffff8083169160a01c1603611e3a575b50506040519586953387611b0f565b815462ffffff60a01b191660a09190911b62ffffff60a01b161790555f86611e2b565b83879592939896949b97115f14611f0d576020611e7d611eaa9c87611b7b565b6040516323b872dd60e01b815233600482015230602482015260448101919091529b8c9081906064820190565b03815f8b5af1928315611d7657611ee1611cf099876103e8935f51602061250c5f395f51905f529f8f98611ef0575b505587611b50565b0490555b929498829496611dfe565b611f089060203d602011611d6f57611d608183611996565b611ed9565b9192939495969099808610611f3d575b5050505090611cf0939291865f51602061250c5f395f51905f5298611ee5565b916103e8611f628796959387611f5a611f8c9c9b9a602098611b7b565b955587611b50565b04905560405163a9059cbb60e01b8152336004820152602481019190915295869081906044820190565b03815f885af18015611d76575f51602061250c5f395f51905f5298611cf0968992611fc0575b819a50839495969750611f1d565b611fd89060203d602011611d6f57611d608183611996565b505f611fb2565b634e487b7160e01b5f52601260045260245ffd5b86546001600160a01b031990811688555f9485905598849055865462ffffff60a01b1916909655855490971690945560405163a9059cbb60e01b815233600482015260248101929092529097949650602095508794604494508593509091505af1908115611d76575f51602061250c5f395f51905f529260c09261209a575b506040519033825260208201525f60408201525f60608201525f60808201525f60a0820152a1565b6120b29060203d602011611d6f57611d608183611996565b612072565b5f546001600160a01b031633036120ca57565b63118cdaa760e01b5f523360045260245ffd5b604051906120ea82611945565b5f6020838281520152565b91908260409103126118185760405161210d81611945565b6020808294805184520151910152565b805180835260209291819084018484015e5f828201840152601f01601f1916010190565b906020909392936040835263ffffffff8151166040840152818101516060840152608061219561217f604084015160a08488015260e087019061211d565b6060840151868203603f190160a088015261211d565b910151151560c08401526001600160a01b03909416910152565b61220b926040926121be6120dd565b506121c883611ab1565b63ffffffff8551946121d986611960565b16845260208401528383015260608201525f6080820152815180938192631bb8518b60e31b8352309060048401612141565b03817f00000000000000000000000000000000000000000000000000000000000000006001600160a01b03165afa908115611d76575f9161224a575090565b905060403d604011612279575b6122618183611996565b810160408282031261181857612276916120f5565b90565b503d612257565b9160405161228d8161197b565b5f81525f602082015260408051916122a483611945565b5f83525f602084015201528351938434036124f857602001918251806123cc575b50918391608095936122da6123239896611ab1565b925115159263ffffffff604051956122f187611960565b168552602085015260408401526060830152848201526040518095819482936302637a4560e41b845260048401612141565b03917f00000000000000000000000000000000000000000000000000000000000000006001600160a01b03165af1908115611d76575f91612362575090565b905060803d6080116123c5575b6123798183611996565b81019060808183031261181857604051916123938361197b565b8151835260208201516001600160401b03811681036118185760208401526123bd916040016120f5565b604082015290565b503d61236f565b60405163393f876560e21b81527f00000000000000000000000000000000000000000000000000000000000000006001600160a01b031690602081600481855afa908115611d76575f916124b6575b506001600160a01b03169182156124a7576040516323b872dd60e01b60208083019182523360248401526001600160a01b039490941660448301526064808301939093529181525f9190612470608482611996565b519082855af115611d76575f513d61249e5750803b155b156122c557635274afe760e01b5f5260045260245ffd5b60011415612487565b6329b99a9560e11b5f5260045ffd5b90506020813d6020116124f0575b816124d160209383611996565b8101031261181857516001600160a01b0381168103611818575f61241b565b3d91506124c4565b6304fb820960e51b5f523460045260245ffdfeb27275fe7d6ec91207f080f7ea0c5ee1cfd18b009497126034132b55eedefe50a26469706673582212209e7f737f8d2638af333b229b91e74d18138a57693855d9f096b8f3d371fa56cb64736f6c634300081c0033","linkReferences":{}},"methodIdentifiers":{"GRID_SIZE()":"7fc4eda8","SCALE()":"eced5526","TOTAL_PIXELS()":"a29497c2","_applyPayload(bytes)":"19b6c541","allowInitializePath((uint32,bytes32,uint64))":"ff7bd03d","applySpellCrossChain(uint8,uint16,uint16)":"5347cf69","changePixelCrossChain(uint16,address,uint256,uint24)":"caa464c6","dstEid()":"734ff5f3","endpoint()":"5e280f11","interactions(address)":"08a6f252","isComposeMsgSender((uint32,bytes32,uint64),bytes,address)":"82413eac","lzReceive((uint32,bytes32,uint64),bytes32,bytes,address,bytes)":"13137d65","nextNonce(uint32,bytes32)":"7d25a05e","oAppVersion()":"17442b70","owner()":"8da5cb5b","peers(uint32)":"bb0b6a53","pixels(uint16)":"9349ec77","renounceOwnership()":"715018a6","runAction((uint16,uint16,uint8,uint8,uint24,uint256,address))":"68ad601a","runActions((uint16,uint16,uint8,uint8,uint24,uint256,address)[])":"89928534","setDelegate(address)":"ca5eb5e1","setPeer(uint32,bytes32)":"3400288b","transferOwnership(address)":"f2fde38b"},"id":41}