{"abi":[{"type":"constructor","inputs":[{"name":"initialOwner","type":"address","internalType":"address"}],"stateMutability":"nonpayable"},{"type":"function","name":"GRID_SIZE","inputs":[],"outputs":[{"name":"","type":"uint8","internalType":"uint8"}],"stateMutability":"view"},{"type":"function","name":"SCALE","inputs":[],"outputs":[{"name":"","type":"uint16","internalType":"uint16"}],"stateMutability":"view"},{"type":"function","name":"TOTAL_PIXELS","inputs":[],"outputs":[{"name":"","type":"uint16","internalType":"uint16"}],"stateMutability":"view"},{"type":"function","name":"interactions","inputs":[{"name":"","type":"address","internalType":"address"}],"outputs":[{"name":"","type":"uint16","internalType":"uint16"}],"stateMutability":"view"},{"type":"function","name":"owner","inputs":[],"outputs":[{"name":"","type":"address","internalType":"address"}],"stateMutability":"view"},{"type":"function","name":"pixels","inputs":[{"name":"","type":"uint16","internalType":"uint16"}],"outputs":[{"name":"owner","type":"address","internalType":"address"},{"name":"color","type":"uint24","internalType":"uint24"},{"name":"stakeAmount","type":"uint256","internalType":"uint256"},{"name":"effectiveStakeAmount","type":"uint256","internalType":"uint256"},{"name":"token_address","type":"address","internalType":"address"}],"stateMutability":"view"},{"type":"function","name":"renounceOwnership","inputs":[],"outputs":[],"stateMutability":"nonpayable"},{"type":"function","name":"transferOwnership","inputs":[{"name":"newOwner","type":"address","internalType":"address"}],"outputs":[],"stateMutability":"nonpayable"},{"type":"event","name":"OwnershipTransferred","inputs":[{"name":"previousOwner","type":"address","indexed":true,"internalType":"address"},{"name":"newOwner","type":"address","indexed":true,"internalType":"address"}],"anonymous":false},{"type":"event","name":"PixelChanged","inputs":[{"name":"staker","type":"address","indexed":false,"internalType":"address"},{"name":"pixelId","type":"uint16","indexed":false,"internalType":"uint16"},{"name":"color","type":"uint24","indexed":false,"internalType":"uint24"},{"name":"amount","type":"uint256","indexed":false,"internalType":"uint256"},{"name":"effectiveAmount","type":"uint256","indexed":false,"internalType":"uint256"},{"name":"token_address","type":"address","indexed":false,"internalType":"address"}],"anonymous":false},{"type":"event","name":"SpellApplied","inputs":[{"name":"spell","type":"uint8","indexed":false,"internalType":"enum SpellType"},{"name":"staker","type":"address","indexed":false,"internalType":"address"},{"name":"pixelId","type":"uint16","indexed":false,"internalType":"uint16"},{"name":"swappedPixelId","type":"uint16","indexed":false,"internalType":"uint16"}],"anonymous":false},{"type":"error","name":"ArrayLengthMismatch","inputs":[]},{"type":"error","name":"InsufficientStakeAmount","inputs":[]},{"type":"error","name":"InvalidPixelId","inputs":[]},{"type":"error","name":"InvalidToken","inputs":[{"name":"token","type":"address","internalType":"address"}]},{"type":"error","name":"NotPixelOwner","inputs":[]},{"type":"error","name":"OwnableInvalidOwner","inputs":[{"name":"owner","type":"address","internalType":"address"}]},{"type":"error","name":"OwnableUnauthorizedAccount","inputs":[{"name":"account","type":"address","internalType":"address"}]},{"type":"error","name":"notEnoughInteractionsForSpell","inputs":[]}],"bytecode":{"object":"0x60803460b857601f6103b038819003918201601f19168301916001600160401b0383118484101760bc5780849260209460405283398101031260b857516001600160a01b0381169081900360b857801560a5575f80546001600160a01b031981168317825560405192916001600160a01b03909116907f8be0079c531659141344cd1fd0a4f28419497f9722a3daafe3b4186f6b6457e09080a36102df90816100d18239f35b631e4fbdf760e01b5f525f60045260245ffd5b5f80fd5b634e487b7160e01b5f52604160045260245ffdfe6080806040526004361015610012575f80fd5b5f3560e01c90816308a6f2521461024657508063715018a6146101ef5780637fc4eda8146101d45780638da5cb5b146101ad5780639349ec7714610139578063a29497c21461011d578063eced5526146101015763f2fde38b14610074575f80fd5b346100fd5760203660031901126100fd576004356001600160a01b038116908190036100fd576100a2610283565b80156100ea575f80546001600160a01b03198116831782556001600160a01b0316907f8be0079c531659141344cd1fd0a4f28419497f9722a3daafe3b4186f6b6457e09080a3005b631e4fbdf760e01b5f525f60045260245ffd5b5f80fd5b346100fd575f3660031901126100fd5760206040516103e88152f35b346100fd575f3660031901126100fd5760206040516127108152f35b346100fd5760203660031901126100fd5760043561ffff81168091036100fd575f52600160205260a060405f208054906001810154906002810154906003600180871b03910154169162ffffff60405194600180881b0381168652861c166020850152604084015260608301526080820152f35b346100fd575f3660031901126100fd575f546040516001600160a01b039091168152602090f35b346100fd575f3660031901126100fd57602060405160648152f35b346100fd575f3660031901126100fd57610207610283565b5f80546001600160a01b0319811682556001600160a01b03167f8be0079c531659141344cd1fd0a4f28419497f9722a3daafe3b4186f6b6457e08280a3005b346100fd5760203660031901126100fd576004356001600160a01b03811691908290036100fd576020915f526002825261ffff60405f2054168152f35b5f546001600160a01b0316330361029657565b63118cdaa760e01b5f523360045260245ffdfea2646970667358221220139b982046c9e658d64fc462906efcf84cc25932e78535e071dd5dda985a1a7664736f6c634300081c0033","linkReferences":{}},"methodIdentifiers":{"GRID_SIZE()":"7fc4eda8","SCALE()":"eced5526","TOTAL_PIXELS()":"a29497c2","interactions(address)":"08a6f252","owner()":"8da5cb5b","pixels(uint16)":"9349ec77","renounceOwnership()":"715018a6","transferOwnership(address)":"f2fde38b"},"id":40}